{
  "contractName": "UsersContract",
  "abi": [
    {
      "constant": false,
      "inputs": [
        {
          "name": "name",
          "type": "string"
        },
        {
          "name": "surName",
          "type": "string"
        }
      ],
      "name": "join",
      "outputs": [],
      "payable": false,
      "stateMutability": "nonpayable",
      "type": "function"
    },
    {
      "constant": true,
      "inputs": [
        {
          "name": "addr",
          "type": "address"
        }
      ],
      "name": "getUser",
      "outputs": [
        {
          "name": "",
          "type": "string"
        },
        {
          "name": "",
          "type": "string"
        }
      ],
      "payable": false,
      "stateMutability": "view",
      "type": "function"
    },
    {
      "constant": true,
      "inputs": [],
      "name": "totalUsers",
      "outputs": [
        {
          "name": "",
          "type": "uint256"
        }
      ],
      "payable": false,
      "stateMutability": "view",
      "type": "function"
    }
  ],
  "bytecode": "0x608060405234801561001057600080fd5b506106bf806100206000396000f300608060405260043610610057576000357c0100000000000000000000000000000000000000000000000000000000900463ffffffff16806329803b211461005c5780636f77926b1461010b578063bff1f9e114610233575b600080fd5b34801561006857600080fd5b50610109600480360381019080803590602001908201803590602001908080601f0160208091040260200160405190810160405280939291908181526020018383808284378201915050505050509192919290803590602001908201803590602001908080601f016020809104026020016040519081016040528093929190818152602001838380828437820191505050505050919291929050505061025e565b005b34801561011757600080fd5b5061014c600480360381019080803573ffffffffffffffffffffffffffffffffffffffff1690602001909291905050506103a9565b604051808060200180602001838103835285818151815260200191508051906020019080838360005b83811015610190578082015181840152602081019050610175565b50505050905090810190601f1680156101bd5780820380516001836020036101000a031916815260200191505b50838103825284818151815260200191508051906020019080838360005b838110156101f65780820151818401526020810190506101db565b50505050905090810190601f1680156102235780820380516001836020036101000a031916815260200191505b5094505050505060405180910390f35b34801561023f57600080fd5b50610248610571565b6040518082815260200191505060405180910390f35b60006102693361057e565b15151561027557600080fd5b6000803373ffffffffffffffffffffffffffffffffffffffff1673ffffffffffffffffffffffffffffffffffffffff1681526020019081526020016000209050828160000190805190602001906102cd9291906105d4565b50818160010190805190602001906102e69291906105d4565b5060018060003373ffffffffffffffffffffffffffffffffffffffff1673ffffffffffffffffffffffffffffffffffffffff16815260200190815260200160002060006101000a81548160ff02191690831515021790555060023390806001815401808255809150509060018203906000526020600020016000909192909190916101000a81548173ffffffffffffffffffffffffffffffffffffffff021916908373ffffffffffffffffffffffffffffffffffffffff16021790555050505050565b6060806103b4610654565b6103bd3361057e565b15156103c857600080fd5b6000808573ffffffffffffffffffffffffffffffffffffffff1673ffffffffffffffffffffffffffffffffffffffff168152602001908152602001600020604080519081016040529081600082018054600181600116156101000203166002900480601f0160208091040260200160405190810160405280929190818152602001828054600181600116156101000203166002900480156104aa5780601f1061047f576101008083540402835291602001916104aa565b820191906000526020600020905b81548152906001019060200180831161048d57829003601f168201915b50505050508152602001600182018054600181600116156101000203166002900480601f01602080910402602001604051908101604052809291908181526020018280546001816001161561010002031660029004801561054c5780601f106105215761010080835404028352916020019161054c565b820191906000526020600020905b81548152906001019060200180831161052f57829003601f168201915b5050505050815250509050806000015181602001518191508090509250925050915091565b6000600280549050905090565b6000600160008373ffffffffffffffffffffffffffffffffffffffff1673ffffffffffffffffffffffffffffffffffffffff16815260200190815260200160002060009054906101000a900460ff169050919050565b828054600181600116156101000203166002900490600052602060002090601f016020900481019282601f1061061557805160ff1916838001178555610643565b82800160010185558215610643579182015b82811115610642578251825591602001919060010190610627565b5b509050610650919061066e565b5090565b604080519081016040528060608152602001606081525090565b61069091905b8082111561068c576000816000905550600101610674565b5090565b905600a165627a7a7230582003bf25e4794c3ec3f4d8a1a46dcbcc540c62a366acafeca183488ae8b4b8d75e0029",
  "source": "pragma solidity ^0.4.24;\n\ncontract UsersContract {\n    struct User {\n        string name; //nombre\n        string surName; //apellidos\n    }\n    //similar a diccionario\n    mapping(address => User) private users;\n    mapping(address => bool) private joinedUsers;//mapeo para ver si el usario se a registrado ya en un smart contract\n    address[] total;//saber cual es el # de usr q se han registrado\n    \n    //event onUserJoined(address,string); //lanza un mensaje con info de lo q ha sucedido\n\n    function join(string name, string surName)public {\n        require(!userJoined(msg.sender));\n        //memory no persiste, storage si\n        User storage user = users[msg.sender];\n        user.name = name;\n        user.surName = surName;\n        joinedUsers[msg.sender] = true;\n        total.push(msg.sender);//registro de las direcciones q tenemos\n        //onUserJoined(msg.sender, string(abi.encodePacked(name,\" \",surName)));\n   }\n\n    //recuperar nombre de usuario y direccion del user\n\n    function getUser(address addr) public view returns (string, string) {\n        require(userJoined(msg.sender));\n        User memory user = users[addr]; //usa memory xq solo consulta\n        return (user.name, user.surName);\n    }\n\n    function userJoined(address addr) private view returns (bool){\n        return joinedUsers[addr];\n    }\n\n    function totalUsers() public view returns (uint){\n        return total.length;\n    }\n}",
  "sourcePath": "C:\\Source\\ethereum-training\\ethereum-truffle\\contracts\\UsersContract.sol",
  "compiler": {
    "name": "solc",
    "version": "0.4.25+commit.59dbf8f1.Emscripten.clang"
  },
  "schemaVersion": "2.0.2",
  "updatedAt": "2021-04-29T04:38:25.091Z"
}